:100000000C9436000C9440040C9469040C949204F3
:100010000C9442070C9442070C9442070C9442073C
:100020000C9442070C94C8050C94E4040C94BB0493
:100030000C9442070C9442070C9442070C9442071C
:100040000C9442070C9442070C9442070C9442070C
:100050000C9442070060006A80006A006D000E96F2
:10006000006D007280007200730000D111241FBE69
:10007000CFE5D8E0DEBFCDBFE4E5F0E040E017C05B
:10008000B591A59135912591059107FD0CC09591EC
:100090008591EF01F92FE82F05900D92A217B30774
:1000A000D9F7FE0104C01D92A217B307E1F7EC36A1
:1000B000F40731F70E947E020C94E706F894FFCF14
:1000C000736572766F3A0064697374616E63653A42
:0100D000002F
:0100D100012D
:1000D20010C00E941C0758F00E94150740F029F436
:1000E2005F3F29F00C942A0751110C9424070C94B9
:1000F2003F070E94340568F39923B1F3552391F326
:10010200951B550BBB27AA2762177307840738F084
:100112009F5F5F4F220F331F441FAA1FA9F335D0E1
:100122000E2E3AF0E0E832D091505040E695001C95
:10013200CAF72BD0FE2F29D0660F771F881FBB1F4F
:10014200261737074807AB07B0E809F0BB0B802D2D
:10015200BF01FF2793585F4F3AF09E3F510578F059
:100162000C942A070C9424075F3FE4F3983ED4F3DF
:10017200869577956795B795F7959F5FC9F7880F2D
:10018200911D9695879597F90895E1E0660F771F7F
:10019200881FBB1F621773078407BA0720F0621B10
:0E01A200730B840BBA0BEE1F88F7E0950895DF
:1001B000CF93C42F613571058105910508F051C0B9
:1001C00084E60E943C07CC3431F0C235D9F0C33408
:1001D00009F058C02EC061E08091620090916300E8
:1001E0000E94E80380916000909161000E940C06DB
:1001F0002FEF83ED90E3215080409040E1F700C065
:10020000000040C061E080916000909161000E9418
:10021000E80380916200909163000E940C062FEF2A
:1002200083ED90E3215080409040E1F700C0000052
:1002300029C061E080916200909163000E94E80310
:1002400060E080916000909161000E94E8032FEFD0
:1002500083ED90E3215080409040E1F700C0000022
:1002600011C084E60E943C0760E08091620090919A
:1002700063000E94E80360E080916000909161005B
:080280000E94E803CF910895EC
:100288000FC00E94150738F00E941C0720F0952324
:1002980011F00C942A070C943F0711240C9424079E
:1002A8000E94340570F3959FC1F3950F50E0551FD8
:1002B800629FF001729FBB27F00DB11D639FAA27B3
:1002C800F00DB11DAA1F649F6627B00DA11D661F02
:1002D800829F2227B00DA11D621F739FB00DA11D23
:1002E800621F839FA00D611D221F749F3327A00DDD
:1002F800611D231F849F600D211D822F762F6A2F79
:1003080011249F5750409AF0F1F088234AF0EE0FDD
:10031800FF1FBB1F661F771F881F91505040A9F70A
:100328009E3F510580F00C942A070C9424075F3FE8
:10033800E4F3983ED4F3869577956795B795F79546
:10034800E7959F5FC1F7FE2B880F911D96958795BE
:0403580097F9089574
:10035C00683008F060C0423008F05FC08130E1F0D6
:10036C0030F0823071F1833009F440C058C02BB3A7
:10037C0081E090E0062E02C0880F991F0A94E2F7E4
:10038C0050E002C0440F551F6A95E2F78095822316
:10039C00482B4BBB80E0089528B381E090E0062EFB
:1003AC0002C0880F991F0A94E2F750E002C0440F74
:1003BC00551F6A95E2F780958223482B48BB80E055
:1003CC00089525B381E090E0062E02C0880F991F96
:1003DC000A94E2F750E002C0440F551F6A95E2F709
:1003EC0080958223482B45BB80E0089522B381E0A1
:1003FC0090E0062E02C0880F991F0A94E2F750E095
:10040C0002C0440F551F6A95E2F780958223482B52
:10041C0042BB80E0089581E0089581E0089581E079
:02042C00089531
:10042E0011C00E94150738F00E941C0720F039F405
:10043E009F3F19F426F40C943F070EF4E095E7FB6A
:10044E000C942A07E92F0E94340558F3BA17620755
:10045E0073078407950720F079F4A6F50C9423070B
:10046E000EF4E0950B2EBA2FA02D0B01B9019001C1
:10047E000C01CA01A0011124FF27591B99F0593F05
:10048E0050F4503E68F11A16F040A22F232F342F4D
:10049E004427585FF3CF469537952795A795F0409B
:1004AE005395C9F77EF41F16BA0B620B730B840BB0
:1004BE00BAF09150A1F0FF0FBB1F661F771F881F68
:1004CE00C2F70EC0BA0F621F731F841F48F48795C0
:1004DE0077956795B795F7959E3F08F0B0CF9395B2
:0E04EE00880F08F09927EE0F979587950895CF
:1004FC00CF93DF93CDB7DEB765970FB6F894DEBF19
:10050C000FBECDBF0E94DB060E9449060E94F20678
:10051C000E94A2060E945C0620EC30E040E087E0DE
:10052C00F901DE011196742F0E94CE0684E699E63D
:10053C009987888782E790E09B878A8727EC30E051
:10054C0040E08AE0F901DE011C96742F0E94CE0671
:10055C000E948003182F0E940D056B017C01CE01B7
:10056C000C960E949605C701B6010E94E40261E058
:10057C0080E00E94C106CE0101960E949605812F53
:10058C000E943506CE0108960E949605412FC701A0
:10059C00B6010E9416040E949605412FC701B601B0
:1005AC000E94D8002FEF89E698E1215080409040BE
:0C05BC00E1F700C000000E943007CACF29
:1005C800CF92DF92EF92FF920F931F93CF938B01FD
:1005D8009C01672B682B692B51F580E30E94350637
:1005E80045C0DC01CB01880F991FAA1FBB1F6C01F6
:1005F8007D01CC0CDD1CEE1CFF1CCC0CDD1CEE1CA4
:10060800FF1CC80ED91EEA1EFB1EC901B8012AE04C
:1006180030E040E050E00E9456056C0D7D1D8E1DB7
:100628009F1D022F132F242F352FCF5F04C0C0E04A
:1006380060E070E0CB01011511052105310589F64F
:1006480013C02AE030E040E050E00E945605E22E58
:10065800F32E042F152F80E3860F0E9435066E2D8A
:100668007F2D802F912FC150C111EBCF80E0CF910A
:0E0678001F910F91FF90EF90DF90CF900895AB
:10068600E89409C097FB3EF4909580957095619526
:100696007F4F8F4F9F4F9923A9F0F92F96E9BB27DC
:1006A6009395F695879577956795B795F111F8CF58
:1006B600FAF4BB0F11F460FF1BC06F5F7F4F8F4FC3
:1006C6009F4F16C0882311F096E911C0772321F0B9
:1006D6009EE8872F762F05C0662371F096E8862F51
:1006E60070E060E02AF09A95660F771F881FDAF7A8
:0A06F600880F9695879597F90895EF
:10070000CF9380917200882331F0809171008E5CCC
:100710008093710005C080917100825380937100B5
:1007200080917100823351F0843621F0811104C030
:10073000CCE405C0C2E503C0C0E201C0C3E40E942E
:100740008006809171008250823638F081E090916D
:100750007200911180E0809372002FEF83EC99E09A
:10076000215080409040E1F700C000008C2FCF91D5
:020770000895EA
:100772000E943C0588F09F5798F0B92F9927B751EE
:10078200B0F0E1F0660F771F881F991F1AF0BA9533
:10079200C9F714C0B13091F00E942307B1E0089567
:1007A2000C942307672F782F8827B85F39F0B93F59
:1007B200CCF3869577956795B395D9F73EF49095E6
:0E07C2008095709561957F4F8F4F9F4F0895E2
:1007D000CF93DF93C82FD92F662319F0613089F0AA
:1007E00021C0682F62956F70CF7040E08C2F0E94FF
:1007F000AE016D2F6F7041E08C2F0E94AE0180E042
:1008000012C0692F6F70D82FDF7040E08D2F0E94CB
:10081000AE016C2F62956F7041E08D2F0E94AE018A
:0C08200080E001C081E0DF91CF910895DD
:10082C00EAE6F0E026E4208320E2218361357105BD
:10083C0081059105D0F44C3429F0423551F0433404
:10084C00A1F40EC0EAE6F0E082E4808382E58183C5
:10085C000CC0EAE6F0E082E480838CE4818305C07E
:10086C00EAE6F0E082E58083818310926C008AE6F0
:04087C0090E008956B
:100880001F920F920FB60F9211242F933F934F9305
:100890005F936F937F938F939F93AF93BF93EF93E8
:1008A000FF93E0916400F0916500309709F009959D
:1008B000FF91EF91BF91AF919F918F917F916F9138
:1008C0005F914F913F912F910F900FBE0F901F900E
:0208D000189579
:1008D2001F920F920FB60F9211242F933F934F93B3
:1008E2005F936F937F938F939F93AF93BF93EF9396
:1008F200FF93E0916600F0916700309709F0099547
:10090200FF91EF91BF91AF919F918F917F916F91E5
:100912005F914F913F912F910F900FBE0F901F90BB
:02092200189526
:100924001F920F920FB60F9211242F933F934F9360
:100934005F936F937F938F939F93AF93BF93EF9343
:10094400FF93E0916800F0916900309709F00995F0
:10095400FF91EF91BF91AF919F918F917F916F9193
:100964005F914F913F912F910F900FBE0F901F9069
:020974001895D4
:100976001F920F920FB60F9211242F933F934F930E
:100986005F936F937F938F939F93AF93BF93EF93F1
:10099600FF93E0916F00F0917000309709F0099590
:1009A600FF91EF91BF91AF919F918F917F916F9141
:1009B6005F914F913F912F910F900FBE0F901F9017
:0209C600189582
:1009C8001F920F920FB60F9211242F933F934F93BC
:1009D8005F936F937F938F939F93AF93BF93EF939F
:1009E800FF93E0916F00F0917000309709F009953E
:1009F800FF91EF91BF91AF919F918F917F916F91EF
:100A08005F914F913F912F910F900FBE0F901F90C4
:020A180018952F
:100A1A0041E063E082E00E94AE018AE18A95F1F743
:100A2A0000C040E063E082E00E94AE011DBC1CBC35
:100A3A000E94F9060E94070708B605FEFDCF1DBCF5
:100A4A001CBC0E9400070E94070710926E001092B9
:0E0A5A006D0008B605FEFDCF0E94B0050895A0
:100A680057FD9058440F551F59F05F3F71F0479557
:100A7800880F97FB991F61F09F3F79F0879508953C
:100A8800121613061406551FF2CF4695F1DF08C05B
:100A9800161617061806991FF1CF86957105610578
:040AA8000894089511
:100AAC00A1E21A2EAA1BBB1BFD010DC0AA1FBB1F66
:100ABC00EE1FFF1FA217B307E407F50720F0A21BD8
:100ACC00B30BE40BF50B661F771F881F991F1A9445
:100ADC0069F760957095809590959B01AC01BD016F
:040AEC00CF01089599
:100AF000682F70E080E090E00E94430320E030E047
:100B000048EC52E40E94340720E030E04FE753E421
:100B10000E9438079B01AC0160E070E08FE793E42E
:0C0B20000E940E070E94B9036CBF0895EC
:100B2C000F931F93CF93DF93009771F08C01C0E06C
:100B3C00D0E003C00E9435062196F801EC0FFD1F92
:100B4C0080818111F7CF01C082E0DF91CF911F919D
:040B5C000F91089558
:100B600046B520916D0030916E00AFEFBFEF0E944F
:100B7000B206640F711D811D911D0E94430329E27D
:100B80003CEF46E654E40E9434070E94B9030895FE
:100B90001F920F920FB60F9211248F939F93809103
:100BA0006D0090916E00019690936E0080936D00A1
:0E0BB0009F918F910F900FBE0F901F90189580
:100BBE00813049F018F0823059F00FC089B781604A
:100BCE0089BF80E0089589B7846089BF80E0089569
:0E0BDE0089B7806489BF80E0089581E00895A2
:100BEC00813049F028F0823049F0833051F00CC04C
:100BFC006BBB80E0089568BB80E0089565BB80E026
:0C0C0C00089562BB80E0089581E0089527
:100C1800CF93DF93D92F682F62956F70C82FCF704D
:100C280040E08C2F0E94AE016D2F6F7040E08C2F3A
:0A0C38000E94AE01DF91CF910895F4
:100C4200CF93C82F40E060E082E00E94AE0140E016
:100C520061E082E00E94AE016C2F80E00E94F60506
:080C62000E946F06CF91089576
:100C6A00CF93C82F41E060E082E00E94AE0140E0ED
:100C7A0061E082E00E94AE016C2F80E00E94F605DE
:080C8A000E946F06CF9108954E
:100C92002FEF83EF91E0215080409040E1F700C0B8
:100CA200000088E30E9421068CE00E94210681E078
:060CB2000E9421060895D6
:100CB80081E480936200E3E6F0E08081807F8560D4
:100CC800808381E680936000E1E6F0E08081807FA8
:060CD8008760808308958F
:100CDE0041E062E082E00E94AE018FE39FE1019766
:100CEE00F1F700C0000040E062E082E00E94AE0139
:020CFE00089557
:100D000041E065E083E00E94AE018FE193E001974E
:100D1000F1F700C0000040E065E083E00E94AE0112
:020D2000089534
:100D2200092E0394000C11F4882352F0BB0F40F4F7
:100D3200BF2B11F460FF04C06F5F7F4F8F4F9F4F37
:020D4200089512
:100D440083B7806483BF83B7886083BF83B78061C0
:100D540083BF83B7806283BF83B7816083BF0895F5
:100D6400A29FB001B39FC001A39F700D811D1124E8
:0E0D7400911DB29F700D811D1124911D0895D7
:100D8200662329F0613021F490E4980F01C0982F76
:0A0D9200892F80680E942106089551
:100D9C00992777FD05C005900D920197E1F708950D
:0A0DAC0001900D920197E1F7089500
:100DB6008FEF8ABB87BB8FE084BB80E281BB1BBA07
:080DC60018BA15BA12BA08951B
:100DCE00EC010E9449070E944807CE010E944A0783
:060DDE00CE010E94460751
:0E0DE4000E94440781E00E94DF051FBC0895B5
:0E0DF2008EB580648EBD8EB581608EBD089575
:0E0E00008EB58F7B8EBD8EB581608EBD089540
:0E0E0E0088B7806288BF88B7846088BF089567
:0E0E1C005058BB27AA270E9417020C9491067B
:0E0E2A0000240A9416161706180609060895E5
:0E0E380000240A9412161306140605060895E7
:0E0E4600E894BB2766277727CB0197F908951C
:0C0E540097F99F6780E870E060E0089567
:080E600081E00E9421060895C3
:080E68000E9469000C94910640
:080E70000E9444010C9491065C
:060E78000E9478050895B8
:060E7E009FEF80EC0895D7
:040E84000C940000CA
:040E880078940895BD
:040E8C000E945E0062
:020E90000895C3
:020E92000895C1
:020E94000895BF
:030E9600462000F3
:00000001FF
